{
  "contractName": "TodoList",
  "abi": [
    {
      "anonymous": false,
      "inputs": [
        {
          "indexed": false,
          "internalType": "uint256",
          "name": "placeId",
          "type": "uint256"
        },
        {
          "indexed": false,
          "internalType": "string",
          "name": "name",
          "type": "string"
        }
      ],
      "name": "NewTodo",
      "type": "event"
    },
    {
      "anonymous": false,
      "inputs": [
        {
          "indexed": true,
          "internalType": "address",
          "name": "previousOwner",
          "type": "address"
        },
        {
          "indexed": true,
          "internalType": "address",
          "name": "newOwner",
          "type": "address"
        }
      ],
      "name": "OwnershipTransferred",
      "type": "event"
    },
    {
      "anonymous": false,
      "inputs": [
        {
          "indexed": false,
          "internalType": "address",
          "name": "customerAddress",
          "type": "address"
        },
        {
          "indexed": false,
          "internalType": "uint256",
          "name": "placeId",
          "type": "uint256"
        }
      ],
      "name": "UpdateTodoList",
      "type": "event"
    },
    {
      "inputs": [],
      "name": "owner",
      "outputs": [
        {
          "internalType": "address",
          "name": "",
          "type": "address"
        }
      ],
      "stateMutability": "view",
      "type": "function",
      "constant": true
    },
    {
      "inputs": [],
      "name": "renounceOwnership",
      "outputs": [],
      "stateMutability": "nonpayable",
      "type": "function"
    },
    {
      "inputs": [
        {
          "internalType": "uint256",
          "name": "",
          "type": "uint256"
        }
      ],
      "name": "todoList",
      "outputs": [
        {
          "internalType": "string",
          "name": "name",
          "type": "string"
        },
        {
          "internalType": "string",
          "name": "priority",
          "type": "string"
        },
        {
          "internalType": "bool",
          "name": "isDone",
          "type": "bool"
        },
        {
          "internalType": "uint256",
          "name": "createdAt",
          "type": "uint256"
        },
        {
          "internalType": "uint256",
          "name": "updatedAt",
          "type": "uint256"
        }
      ],
      "stateMutability": "view",
      "type": "function",
      "constant": true
    },
    {
      "inputs": [
        {
          "internalType": "uint256",
          "name": "",
          "type": "uint256"
        }
      ],
      "name": "todoToOwner",
      "outputs": [
        {
          "internalType": "address",
          "name": "",
          "type": "address"
        }
      ],
      "stateMutability": "view",
      "type": "function",
      "constant": true
    },
    {
      "inputs": [
        {
          "internalType": "address",
          "name": "newOwner",
          "type": "address"
        }
      ],
      "name": "transferOwnership",
      "outputs": [],
      "stateMutability": "nonpayable",
      "type": "function"
    },
    {
      "inputs": [],
      "name": "getTodoList",
      "outputs": [
        {
          "components": [
            {
              "components": [
                {
                  "internalType": "string",
                  "name": "name",
                  "type": "string"
                },
                {
                  "internalType": "string",
                  "name": "priority",
                  "type": "string"
                },
                {
                  "internalType": "bool",
                  "name": "isDone",
                  "type": "bool"
                },
                {
                  "internalType": "uint256",
                  "name": "createdAt",
                  "type": "uint256"
                },
                {
                  "internalType": "uint256",
                  "name": "updatedAt",
                  "type": "uint256"
                }
              ],
              "internalType": "struct TodoList.TodoItem[]",
              "name": "todoList",
              "type": "tuple[]"
            },
            {
              "internalType": "uint256",
              "name": "todoListCount",
              "type": "uint256"
            }
          ],
          "internalType": "struct TodoList.TodoListResponse",
          "name": "",
          "type": "tuple"
        }
      ],
      "stateMutability": "view",
      "type": "function",
      "constant": true
    },
    {
      "inputs": [],
      "name": "getTodoListCount",
      "outputs": [
        {
          "internalType": "uint256",
          "name": "",
          "type": "uint256"
        }
      ],
      "stateMutability": "view",
      "type": "function",
      "constant": true
    },
    {
      "inputs": [
        {
          "internalType": "string",
          "name": "_name",
          "type": "string"
        },
        {
          "internalType": "string",
          "name": "_priority",
          "type": "string"
        }
      ],
      "name": "createNewTodo",
      "outputs": [],
      "stateMutability": "nonpayable",
      "type": "function"
    },
    {
      "inputs": [
        {
          "internalType": "uint256",
          "name": "_placeId",
          "type": "uint256"
        },
        {
          "components": [
            {
              "internalType": "string",
              "name": "name",
              "type": "string"
            },
            {
              "internalType": "string",
              "name": "priority",
              "type": "string"
            },
            {
              "internalType": "bool",
              "name": "isDone",
              "type": "bool"
            }
          ],
          "internalType": "struct TodoList.UpdatedTodoItem",
          "name": "_updatedTodoItem",
          "type": "tuple"
        }
      ],
      "name": "updateTodoItem",
      "outputs": [],
      "stateMutability": "nonpayable",
      "type": "function"
    },
    {
      "inputs": [
        {
          "internalType": "uint256",
          "name": "_todoId",
          "type": "uint256"
        }
      ],
      "name": "removeTodo",
      "outputs": [],
      "stateMutability": "nonpayable",
      "type": "function"
    }
  ],
  "bytecode": "0x6080604052600060025534801561001557600080fd5b5060006100266100c960201b60201c565b9050806000806101000a81548173ffffffffffffffffffffffffffffffffffffffff021916908373ffffffffffffffffffffffffffffffffffffffff1602179055508073ffffffffffffffffffffffffffffffffffffffff16600073ffffffffffffffffffffffffffffffffffffffff167f8be0079c531659141344cd1fd0a4f28419497f9722a3daafe3b4186f6b6457e060405160405180910390a3506100d1565b600033905090565b61187a806100e06000396000f3fe608060405234801561001057600080fd5b506004361061009e5760003560e01c8063715018a611610066578063715018a6146101495780638da5cb5b14610153578063aebdd98714610171578063f2fde38b1461018f578063fc1be84d146101ab5761009e565b80630c7a16be146100a35780631b660bfb146100c15780633bca4837146100dd5780633be3d703146100f957806358c2d46914610115575b600080fd5b6100ab6101db565b6040516100b891906114f4565b60405180910390f35b6100db60048036038101906100d69190611080565b6103a9565b005b6100f760048036038101906100f29190611115565b610625565b005b610113600480360381019061010e91906110ec565b610709565b005b61012f600480360381019061012a91906110ec565b6108e2565b604051610140959493929190611453565b60405180910390f35b610151610a45565b005b61015b610b7f565b604051610168919061140f565b60405180910390f35b610179610ba8565b6040516101869190611516565b60405180910390f35b6101a960048036038101906101a49190611057565b610bb2565b005b6101c560048036038101906101c091906110ec565b610d5b565b6040516101d2919061140f565b60405180910390f35b6101e3610d96565b60405180604001604052806001805480602002602001604051908101604052809291908181526020016000905b8282101561039557838290600052602060002090600502016040518060a0016040529081600082018054610243906116e6565b80601f016020809104026020016040519081016040528092919081815260200182805461026f906116e6565b80156102bc5780601f10610291576101008083540402835291602001916102bc565b820191906000526020600020905b81548152906001019060200180831161029f57829003601f168201915b505050505081526020016001820180546102d5906116e6565b80601f0160208091040260200160405190810160405280929190818152602001828054610301906116e6565b801561034e5780601f106103235761010080835404028352916020019161034e565b820191906000526020600020905b81548152906001019060200180831161033157829003601f168201915b505050505081526020016002820160009054906101000a900460ff161515151581526020016003820154815260200160048201548152505081526020019060010190610210565b505050508152602001600254815250905090565b60025460018054905014156104825760016040518060a001604052808481526020018381526020016000151581526020014281526020014281525090806001815401808255809150506001900390600052602060002090600502016000909190919091506000820151816000019080519060200190610429929190610db0565b506020820151816001019080519060200190610446929190610db0565b5060408201518160020160006101000a81548160ff02191690831515021790555060608201518160030155608082015181600401555050610568565b6040518060a00160405280838152602001828152602001600015158152602001428152602001428152506001600254815481106104e8577f4e487b7100000000000000000000000000000000000000000000000000000000600052603260045260246000fd5b90600052602060002090600502016000820151816000019080519060200190610512929190610db0565b50602082015181600101908051906020019061052f929190610db0565b5060408201518160020160006101000a81548160ff02191690831515021790555060608201518160030155608082015181600401559050505b6002600081548092919061057b90611718565b91905055506000600180805490506105939190611628565b9050336003600083815260200190815260200160002060006101000a81548173ffffffffffffffffffffffffffffffffffffffff021916908373ffffffffffffffffffffffffffffffffffffffff1602179055507f519e6cb2a53bd673147fe9db7b7c09c6f6dc475c9637a999c906c5c2119f205f8184604051610618929190611531565b60405180910390a1505050565b600060018381548110610661577f4e487b7100000000000000000000000000000000000000000000000000000000600052603260045260246000fd5b90600052602060002090600502019050816000015181600001908051906020019061068d929190610db0565b5081602001518160010190805190602001906106aa929190610db0565b5081604001518160020160006101000a81548160ff0219169083151502179055507f54faa28617ddfb6fb86e6e7d228381deaa9b2881ce992d80bd7fcd70a72fdaf833846040516106fc92919061142a565b60405180910390a1505050565b600180808054905061071b9190611628565b81548110610752577f4e487b7100000000000000000000000000000000000000000000000000000000600052603260045260246000fd5b90600052602060002090600502016001828154811061079a577f4e487b7100000000000000000000000000000000000000000000000000000000600052603260045260246000fd5b906000526020600020906005020160008201816000019080546107bc906116e6565b6107c7929190610e36565b5060018201816001019080546107dc906116e6565b6107e7929190610e36565b506002820160009054906101000a900460ff168160020160006101000a81548160ff0219169083151502179055506003820154816003015560048201548160040155905050600180808054905061083e9190611628565b81548110610875577f4e487b7100000000000000000000000000000000000000000000000000000000600052603260045260246000fd5b9060005260206000209060050201600080820160006108949190610ec3565b6001820160006108a49190610ec3565b6002820160006101000a81549060ff021916905560038201600090556004820160009055505060016002546108d99190611628565b60028190555050565b600181815481106108f257600080fd5b9060005260206000209060050201600091509050806000018054610915906116e6565b80601f0160208091040260200160405190810160405280929190818152602001828054610941906116e6565b801561098e5780601f106109635761010080835404028352916020019161098e565b820191906000526020600020905b81548152906001019060200180831161097157829003601f168201915b5050505050908060010180546109a3906116e6565b80601f01602080910402602001604051908101604052809291908181526020018280546109cf906116e6565b8015610a1c5780601f106109f157610100808354040283529160200191610a1c565b820191906000526020600020905b8154815290600101906020018083116109ff57829003601f168201915b5050505050908060020160009054906101000a900460ff16908060030154908060040154905085565b610a4d610d8e565b73ffffffffffffffffffffffffffffffffffffffff16610a6b610b7f565b73ffffffffffffffffffffffffffffffffffffffff1614610ac1576040517f08c379a0000000000000000000000000000000000000000000000000000000008152600401610ab8906114d4565b60405180910390fd5b600073ffffffffffffffffffffffffffffffffffffffff1660008054906101000a900473ffffffffffffffffffffffffffffffffffffffff1673ffffffffffffffffffffffffffffffffffffffff167f8be0079c531659141344cd1fd0a4f28419497f9722a3daafe3b4186f6b6457e060405160405180910390a360008060006101000a81548173ffffffffffffffffffffffffffffffffffffffff021916908373ffffffffffffffffffffffffffffffffffffffff160217905550565b60008060009054906101000a900473ffffffffffffffffffffffffffffffffffffffff16905090565b6000600254905090565b610bba610d8e565b73ffffffffffffffffffffffffffffffffffffffff16610bd8610b7f565b73ffffffffffffffffffffffffffffffffffffffff1614610c2e576040517f08c379a0000000000000000000000000000000000000000000000000000000008152600401610c25906114d4565b60405180910390fd5b600073ffffffffffffffffffffffffffffffffffffffff168173ffffffffffffffffffffffffffffffffffffffff161415610c9e576040517f08c379a0000000000000000000000000000000000000000000000000000000008152600401610c95906114b4565b60405180910390fd5b8073ffffffffffffffffffffffffffffffffffffffff1660008054906101000a900473ffffffffffffffffffffffffffffffffffffffff1673ffffffffffffffffffffffffffffffffffffffff167f8be0079c531659141344cd1fd0a4f28419497f9722a3daafe3b4186f6b6457e060405160405180910390a3806000806101000a81548173ffffffffffffffffffffffffffffffffffffffff021916908373ffffffffffffffffffffffffffffffffffffffff16021790555050565b60036020528060005260406000206000915054906101000a900473ffffffffffffffffffffffffffffffffffffffff1681565b600033905090565b604051806040016040528060608152602001600081525090565b828054610dbc906116e6565b90600052602060002090601f016020900481019282610dde5760008555610e25565b82601f10610df757805160ff1916838001178555610e25565b82800160010185558215610e25579182015b82811115610e24578251825591602001919060010190610e09565b5b509050610e329190610f03565b5090565b828054610e42906116e6565b90600052602060002090601f016020900481019282610e645760008555610eb2565b82601f10610e755780548555610eb2565b82800160010185558215610eb257600052602060002091601f016020900482015b82811115610eb1578254825591600101919060010190610e96565b5b509050610ebf9190610f03565b5090565b508054610ecf906116e6565b6000825580601f10610ee15750610f00565b601f016020900490600052602060002090810190610eff9190610f03565b5b50565b5b80821115610f1c576000816000905550600101610f04565b5090565b6000610f33610f2e84611592565b611561565b905082815260208101848484011115610f4b57600080fd5b610f568482856116a4565b509392505050565b600081359050610f6d816117ff565b92915050565b600081359050610f8281611816565b92915050565b600082601f830112610f9957600080fd5b8135610fa9848260208601610f20565b91505092915050565b600060608284031215610fc457600080fd5b610fce6060611561565b9050600082013567ffffffffffffffff811115610fea57600080fd5b610ff684828501610f88565b600083015250602082013567ffffffffffffffff81111561101657600080fd5b61102284828501610f88565b602083015250604061103684828501610f73565b60408301525092915050565b6000813590506110518161182d565b92915050565b60006020828403121561106957600080fd5b600061107784828501610f5e565b91505092915050565b6000806040838503121561109357600080fd5b600083013567ffffffffffffffff8111156110ad57600080fd5b6110b985828601610f88565b925050602083013567ffffffffffffffff8111156110d657600080fd5b6110e285828601610f88565b9150509250929050565b6000602082840312156110fe57600080fd5b600061110c84828501611042565b91505092915050565b6000806040838503121561112857600080fd5b600061113685828601611042565b925050602083013567ffffffffffffffff81111561115357600080fd5b61115f85828601610fb2565b9150509250929050565b60006111758383611337565b905092915050565b6111868161165c565b82525050565b6000611197826115d2565b6111a181856115f5565b9350836020820285016111b3856115c2565b8060005b858110156111ef57848403895281516111d08582611169565b94506111db836115e8565b925060208a019950506001810190506111b7565b50829750879550505050505092915050565b61120a8161166e565b82525050565b6112198161166e565b82525050565b600061122a826115dd565b6112348185611606565b93506112448185602086016116b3565b61124d816117ee565b840191505092915050565b6000611263826115dd565b61126d8185611617565b935061127d8185602086016116b3565b611286816117ee565b840191505092915050565b600061129e602683611617565b91507f4f776e61626c653a206e6577206f776e657220697320746865207a65726f206160008301527f64647265737300000000000000000000000000000000000000000000000000006020830152604082019050919050565b6000611304602083611617565b91507f4f776e61626c653a2063616c6c6572206973206e6f7420746865206f776e65726000830152602082019050919050565b600060a0830160008301518482036000860152611354828261121f565b9150506020830151848203602086015261136e828261121f565b91505060408301516113836040860182611201565b50606083015161139660608601826113f1565b5060808301516113a960808601826113f1565b508091505092915050565b600060408301600083015184820360008601526113d1828261118c565b91505060208301516113e660208601826113f1565b508091505092915050565b6113fa8161169a565b82525050565b6114098161169a565b82525050565b6000602082019050611424600083018461117d565b92915050565b600060408201905061143f600083018561117d565b61144c6020830184611400565b9392505050565b600060a082019050818103600083015261146d8188611258565b905081810360208301526114818187611258565b90506114906040830186611210565b61149d6060830185611400565b6114aa6080830184611400565b9695505050505050565b600060208201905081810360008301526114cd81611291565b9050919050565b600060208201905081810360008301526114ed816112f7565b9050919050565b6000602082019050818103600083015261150e81846113b4565b905092915050565b600060208201905061152b6000830184611400565b92915050565b60006040820190506115466000830185611400565b81810360208301526115588184611258565b90509392505050565b6000604051905081810181811067ffffffffffffffff82111715611588576115876117bf565b5b8060405250919050565b600067ffffffffffffffff8211156115ad576115ac6117bf565b5b601f19601f8301169050602081019050919050565b6000819050602082019050919050565b600081519050919050565b600081519050919050565b6000602082019050919050565b600082825260208201905092915050565b600082825260208201905092915050565b600082825260208201905092915050565b60006116338261169a565b915061163e8361169a565b92508282101561165157611650611761565b5b828203905092915050565b60006116678261167a565b9050919050565b60008115159050919050565b600073ffffffffffffffffffffffffffffffffffffffff82169050919050565b6000819050919050565b82818337600083830152505050565b60005b838110156116d15780820151818401526020810190506116b6565b838111156116e0576000848401525b50505050565b600060028204905060018216806116fe57607f821691505b6020821081141561171257611711611790565b5b50919050565b60006117238261169a565b91507fffffffffffffffffffffffffffffffffffffffffffffffffffffffffffffffff82141561175657611755611761565b5b600182019050919050565b7f4e487b7100000000000000000000000000000000000000000000000000000000600052601160045260246000fd5b7f4e487b7100000000000000000000000000000000000000000000000000000000600052602260045260246000fd5b7f4e487b7100000000000000000000000000000000000000000000000000000000600052604160045260246000fd5b6000601f19601f8301169050919050565b6118088161165c565b811461181357600080fd5b50565b61181f8161166e565b811461182a57600080fd5b50565b6118368161169a565b811461184157600080fd5b5056fea2646970667358221220560232a9114bb7ba950ba03536609b085c97b7735b8186410f30daeb3aa8d09a64736f6c63430008000033",
  "immutableReferences": {},
  "source": "// SPDX-License-Identifier: MIT\npragma solidity ^0.8.0;\n\nimport \"@openzeppelin/contracts/access/Ownable.sol\";\n\ncontract TodoList is Ownable {\n  event NewTodo(uint placeId, string name);\n  event UpdateTodoList(address customerAddress, uint placeId);\n\n  struct TodoItem {\n    string name;\n    string priority;\n    bool isDone;\n    uint createdAt;\n    uint updatedAt;\n  }\n\n  struct UpdatedTodoItem {\n    string name;\n    string priority;\n    bool isDone;\n  }\n\n  struct TodoListResponse {\n    TodoItem[] todoList;\n    uint todoListCount;\n  }\n\n\n  TodoItem[]  public  todoList;\n  uint todoListCount = 0;\n\n  mapping(uint => address) public todoToOwner;\n\n  function getTodoList() public view returns (TodoListResponse memory) {\n    return TodoListResponse(todoList, todoListCount);\n  }\n\n  function getTodoListCount() public view returns(uint) {\n    return todoListCount;\n  }\n\n  function createNewTodo(string memory _name, string memory _priority) public {\n    if(todoList.length == todoListCount) {\n      todoList.push(TodoItem(_name, _priority, false, block.timestamp, block.timestamp));\n    } else {\n      todoList[todoListCount] = (TodoItem(_name, _priority, false, block.timestamp, block.timestamp));\n    }\n\n    todoListCount++;\n\n    uint id = todoList.length - 1;\n\n    todoToOwner[id] = msg.sender;\n    emit NewTodo(id, _name);\n  }\n\n  function updateTodoItem(uint _placeId, UpdatedTodoItem memory _updatedTodoItem) public {\n    TodoItem storage todoItem = todoList[_placeId];\n\n    todoItem.name = _updatedTodoItem.name;\n    todoItem.priority = _updatedTodoItem.priority;\n    todoItem.isDone = _updatedTodoItem.isDone;\n\n\n    emit UpdateTodoList(msg.sender, _placeId);\n  }\n\n  function removeTodo(uint _todoId) public {\n      todoList[_todoId] = todoList[todoList.length - 1];\n      delete todoList[todoList.length - 1];\n      todoListCount = todoListCount - 1;\n  }\n}\n",
  "sourcePath": "/home/INTEXSOFT/eugene.zenkov/work/projects/my work/solidity/contracts/TodoList.sol",
  "compiler": {
    "name": "solc",
    "version": "0.8.0+commit.c7dfd78e.Emscripten.clang"
  },
  "schemaVersion": "3.4.1",
  "updatedAt": "2021-07-06T15:47:11.937Z",
  "networkType": "ethereum",
  "devdoc": {
    "kind": "dev",
    "methods": {
      "owner()": {
        "details": "Returns the address of the current owner."
      },
      "renounceOwnership()": {
        "details": "Leaves the contract without owner. It will not be possible to call `onlyOwner` functions anymore. Can only be called by the current owner. NOTE: Renouncing ownership will leave the contract without an owner, thereby removing any functionality that is only available to the owner."
      },
      "transferOwnership(address)": {
        "details": "Transfers ownership of the contract to a new account (`newOwner`). Can only be called by the current owner."
      }
    },
    "version": 1
  },
  "userdoc": {
    "kind": "user",
    "methods": {},
    "version": 1
  }
}